{
  "contractName": "CollegeElection",
  "abi": [
    {
      "inputs": [],
      "stateMutability": "nonpayable",
      "type": "constructor"
    },
    {
      "anonymous": false,
      "inputs": [],
      "name": "ElectionEnded",
      "type": "event"
    },
    {
      "anonymous": false,
      "inputs": [],
      "name": "ElectionStarted",
      "type": "event"
    },
    {
      "anonymous": false,
      "inputs": [
        {
          "indexed": true,
          "internalType": "address",
          "name": "voter",
          "type": "address"
        },
        {
          "indexed": false,
          "internalType": "string",
          "name": "candidateId",
          "type": "string"
        }
      ],
      "name": "Voted",
      "type": "event"
    },
    {
      "anonymous": false,
      "inputs": [
        {
          "indexed": true,
          "internalType": "address",
          "name": "voter",
          "type": "address"
        },
        {
          "indexed": false,
          "internalType": "string",
          "name": "name",
          "type": "string"
        }
      ],
      "name": "VoterLogin",
      "type": "event"
    },
    {
      "anonymous": false,
      "inputs": [
        {
          "indexed": true,
          "internalType": "address",
          "name": "voter",
          "type": "address"
        },
        {
          "indexed": false,
          "internalType": "string",
          "name": "name",
          "type": "string"
        },
        {
          "indexed": false,
          "internalType": "string",
          "name": "voterId",
          "type": "string"
        }
      ],
      "name": "VoterRegistered",
      "type": "event"
    },
    {
      "inputs": [],
      "name": "admin",
      "outputs": [
        {
          "internalType": "address",
          "name": "",
          "type": "address"
        }
      ],
      "stateMutability": "view",
      "type": "function",
      "constant": true
    },
    {
      "inputs": [
        {
          "internalType": "uint256",
          "name": "",
          "type": "uint256"
        }
      ],
      "name": "candidateList",
      "outputs": [
        {
          "internalType": "string",
          "name": "",
          "type": "string"
        }
      ],
      "stateMutability": "view",
      "type": "function",
      "constant": true
    },
    {
      "inputs": [
        {
          "internalType": "string",
          "name": "",
          "type": "string"
        }
      ],
      "name": "candidates",
      "outputs": [
        {
          "internalType": "string",
          "name": "id",
          "type": "string"
        },
        {
          "internalType": "string",
          "name": "name",
          "type": "string"
        },
        {
          "internalType": "uint256",
          "name": "voteCount",
          "type": "uint256"
        }
      ],
      "stateMutability": "view",
      "type": "function",
      "constant": true
    },
    {
      "inputs": [],
      "name": "electionEnded",
      "outputs": [
        {
          "internalType": "bool",
          "name": "",
          "type": "bool"
        }
      ],
      "stateMutability": "view",
      "type": "function",
      "constant": true
    },
    {
      "inputs": [],
      "name": "electionStarted",
      "outputs": [
        {
          "internalType": "bool",
          "name": "",
          "type": "bool"
        }
      ],
      "stateMutability": "view",
      "type": "function",
      "constant": true
    },
    {
      "inputs": [
        {
          "internalType": "string",
          "name": "",
          "type": "string"
        }
      ],
      "name": "voterIds",
      "outputs": [
        {
          "internalType": "bool",
          "name": "",
          "type": "bool"
        }
      ],
      "stateMutability": "view",
      "type": "function",
      "constant": true
    },
    {
      "inputs": [
        {
          "internalType": "address",
          "name": "",
          "type": "address"
        }
      ],
      "name": "voters",
      "outputs": [
        {
          "internalType": "bool",
          "name": "hasVoted",
          "type": "bool"
        },
        {
          "internalType": "string",
          "name": "votedCandidateId",
          "type": "string"
        },
        {
          "internalType": "string",
          "name": "name",
          "type": "string"
        },
        {
          "internalType": "uint256",
          "name": "age",
          "type": "uint256"
        },
        {
          "internalType": "string",
          "name": "gender",
          "type": "string"
        },
        {
          "internalType": "string",
          "name": "voterId",
          "type": "string"
        },
        {
          "internalType": "bool",
          "name": "isRegistered",
          "type": "bool"
        }
      ],
      "stateMutability": "view",
      "type": "function",
      "constant": true
    },
    {
      "inputs": [
        {
          "internalType": "string",
          "name": "_id",
          "type": "string"
        },
        {
          "internalType": "string",
          "name": "_name",
          "type": "string"
        }
      ],
      "name": "addCandidate",
      "outputs": [],
      "stateMutability": "nonpayable",
      "type": "function"
    },
    {
      "inputs": [],
      "name": "startElection",
      "outputs": [],
      "stateMutability": "nonpayable",
      "type": "function"
    },
    {
      "inputs": [],
      "name": "endElection",
      "outputs": [],
      "stateMutability": "nonpayable",
      "type": "function"
    },
    {
      "inputs": [
        {
          "internalType": "string",
          "name": "_name",
          "type": "string"
        },
        {
          "internalType": "uint256",
          "name": "_age",
          "type": "uint256"
        },
        {
          "internalType": "string",
          "name": "_gender",
          "type": "string"
        },
        {
          "internalType": "string",
          "name": "_voterId",
          "type": "string"
        }
      ],
      "name": "registerVoter",
      "outputs": [],
      "stateMutability": "nonpayable",
      "type": "function"
    },
    {
      "inputs": [
        {
          "internalType": "string",
          "name": "_voterId",
          "type": "string"
        }
      ],
      "name": "loginVoter",
      "outputs": [
        {
          "internalType": "string",
          "name": "",
          "type": "string"
        }
      ],
      "stateMutability": "view",
      "type": "function",
      "constant": true
    },
    {
      "inputs": [
        {
          "internalType": "string",
          "name": "_candidateId",
          "type": "string"
        }
      ],
      "name": "vote",
      "outputs": [],
      "stateMutability": "nonpayable",
      "type": "function"
    },
    {
      "inputs": [
        {
          "internalType": "string",
          "name": "_candidateId",
          "type": "string"
        }
      ],
      "name": "getResults",
      "outputs": [
        {
          "internalType": "uint256",
          "name": "",
          "type": "uint256"
        }
      ],
      "stateMutability": "view",
      "type": "function",
      "constant": true
    },
    {
      "inputs": [],
      "name": "getCandidateList",
      "outputs": [
        {
          "components": [
            {
              "internalType": "string",
              "name": "id",
              "type": "string"
            },
            {
              "internalType": "string",
              "name": "name",
              "type": "string"
            },
            {
              "internalType": "uint256",
              "name": "voteCount",
              "type": "uint256"
            }
          ],
          "internalType": "struct CollegeElection.Candidate[]",
          "name": "",
          "type": "tuple[]"
        }
      ],
      "stateMutability": "view",
      "type": "function",
      "constant": true
    },
    {
      "inputs": [
        {
          "internalType": "address",
          "name": "_voter",
          "type": "address"
        }
      ],
      "name": "getVoterDetails",
      "outputs": [
        {
          "components": [
            {
              "internalType": "bool",
              "name": "hasVoted",
              "type": "bool"
            },
            {
              "internalType": "string",
              "name": "votedCandidateId",
              "type": "string"
            },
            {
              "internalType": "string",
              "name": "name",
              "type": "string"
            },
            {
              "internalType": "uint256",
              "name": "age",
              "type": "uint256"
            },
            {
              "internalType": "string",
              "name": "gender",
              "type": "string"
            },
            {
              "internalType": "string",
              "name": "voterId",
              "type": "string"
            },
            {
              "internalType": "bool",
              "name": "isRegistered",
              "type": "bool"
            }
          ],
          "internalType": "struct CollegeElection.Voter",
          "name": "",
          "type": "tuple"
        }
      ],
      "stateMutability": "view",
      "type": "function",
      "constant": true
    }
  ],
  "bytecode": "0x608060405260008060146101000a81548160ff02191690831515021790555060008060156101000a81548160ff02191690831515021790555034801561004457600080fd5b50336000806101000a81548173ffffffffffffffffffffffffffffffffffffffff021916908373ffffffffffffffffffffffffffffffffffffffff160217905550612ce3806100946000396000f3fe608060405234801561001057600080fd5b50600436106101005760003560e01c8063ba71bef011610097578063d5346da111610066578063d5346da1146102c7578063f851a440146102e5578063fc36e15b14610303578063fdbc40061461031f57610100565b8063ba71bef01461022b578063c5539cc21461025b578063c94ca9e31461028d578063cd6cf311146102ab57610100565b806381bb3c06116100d357806381bb3c06146101655780639ebed03f14610195578063a3ec138d146101c5578063b13c744b146101fb57610100565b806326541b56146101055780632ff20f011461012157806359f784681461015157806362d73eb81461015b575b600080fd5b61011f600480360381019061011a9190611ec5565b61033d565b005b61013b60048036038101906101369190611e84565b6104fc565b60405161014891906129da565b60405180910390f35b6101596105e6565b005b61016361075c565b005b61017f600480360381019061017a9190611e84565b6108d3565b60405161018c919061277a565b60405180910390f35b6101af60048036038101906101aa9190611e84565b610b05565b6040516101bc91906126d4565b60405180910390f35b6101df60048036038101906101da9190611e5b565b610b3b565b6040516101f297969594939291906126ef565b60405180910390f35b61021560048036038101906102109190611fdc565b610db7565b604051610222919061277a565b60405180910390f35b61024560048036038101906102409190611e5b565b610e63565b60405161025291906129b8565b60405180910390f35b61027560048036038101906102709190611e84565b6111d3565b604051610284939291906127d3565b60405180910390f35b610295611323565b6040516102a291906126d4565b60405180910390f35b6102c560048036038101906102c09190611f31565b611336565b005b6102cf611607565b6040516102dc91906126d4565b60405180910390f35b6102ed61161a565b6040516102fa9190612697565b60405180910390f35b61031d60048036038101906103189190611e84565b61163e565b005b6103276119a7565b60405161033491906126b2565b60405180910390f35b60008054906101000a900473ffffffffffffffffffffffffffffffffffffffff1673ffffffffffffffffffffffffffffffffffffffff163373ffffffffffffffffffffffffffffffffffffffff16146103cb576040517f08c379a00000000000000000000000000000000000000000000000000000000081526004016103c290612978565b60405180910390fd5b60006001836040516103dd9190612669565b908152602001604051809103902060000180546103f990612b66565b90501461043b576040517f08c379a0000000000000000000000000000000000000000000000000000000008152600401610432906128f8565b60405180910390fd5b604051806060016040528083815260200182815260200160008152506001836040516104679190612669565b90815260200160405180910390206000820151816000019080519060200190610491929190611cc4565b5060208201518160010190805190602001906104ae929190611cc4565b50604082015181600201559050506004829080600181540180825580915050600190039060005260206000200160009091909190915090805190602001906104f7929190611cc4565b505050565b60008060159054906101000a900460ff1661054c576040517f08c379a000000000000000000000000000000000000000000000000000000000815260040161054390612838565b60405180910390fd5b600060018360405161055e9190612669565b9081526020016040518091039020600001805461057a90612b66565b905014156105bd576040517f08c379a00000000000000000000000000000000000000000000000000000000081526004016105b490612938565b60405180910390fd5b6001826040516105cd9190612669565b9081526020016040518091039020600201549050919050565b60008054906101000a900473ffffffffffffffffffffffffffffffffffffffff1673ffffffffffffffffffffffffffffffffffffffff163373ffffffffffffffffffffffffffffffffffffffff1614610674576040517f08c379a000000000000000000000000000000000000000000000000000000000815260040161066b90612978565b60405180910390fd5b600060149054906101000a900460ff166106c3576040517f08c379a00000000000000000000000000000000000000000000000000000000081526004016106ba90612998565b60405180910390fd5b600060159054906101000a900460ff1615610713576040517f08c379a000000000000000000000000000000000000000000000000000000000815260040161070a90612878565b60405180910390fd5b6001600060156101000a81548160ff0219169083151502179055507f66ec723071e4bb646f7b35d31bc2dee8510979bd8c180edd0690d4f5e802f1e460405160405180910390a1565b60008054906101000a900473ffffffffffffffffffffffffffffffffffffffff1673ffffffffffffffffffffffffffffffffffffffff163373ffffffffffffffffffffffffffffffffffffffff16146107ea576040517f08c379a00000000000000000000000000000000000000000000000000000000081526004016107e190612978565b60405180910390fd5b600060149054906101000a900460ff161561083a576040517f08c379a0000000000000000000000000000000000000000000000000000000008152600401610831906128b8565b60405180910390fd5b600060159054906101000a900460ff161561088a576040517f08c379a000000000000000000000000000000000000000000000000000000000815260040161088190612818565b60405180910390fd5b6001600060146101000a81548160ff0219169083151502179055507fc475c26aa25ed8e85a7faa790e5f63b5d7ee1025f12821f4c9bfddd36ab4d11260405160405180910390a1565b6060600260003373ffffffffffffffffffffffffffffffffffffffff1673ffffffffffffffffffffffffffffffffffffffff16815260200190815260200160002060060160009054906101000a900460ff16610964576040517f08c379a000000000000000000000000000000000000000000000000000000000815260040161095b906128d8565b60405180910390fd5b816040516020016109759190612669565b60405160208183030381529060405280519060200120600260003373ffffffffffffffffffffffffffffffffffffffff1673ffffffffffffffffffffffffffffffffffffffff1681526020019081526020016000206005016040516020016109dd9190612680565b6040516020818303038152906040528051906020012014610a33576040517f08c379a0000000000000000000000000000000000000000000000000000000008152600401610a2a90612858565b60405180910390fd5b600260003373ffffffffffffffffffffffffffffffffffffffff1673ffffffffffffffffffffffffffffffffffffffff1681526020019081526020016000206002018054610a8090612b66565b80601f0160208091040260200160405190810160405280929190818152602001828054610aac90612b66565b8015610af95780601f10610ace57610100808354040283529160200191610af9565b820191906000526020600020905b815481529060010190602001808311610adc57829003601f168201915b50505050509050919050565b6003818051602081018201805184825260208301602085012081835280955050505050506000915054906101000a900460ff1681565b60026020528060005260406000206000915090508060000160009054906101000a900460ff1690806001018054610b7190612b66565b80601f0160208091040260200160405190810160405280929190818152602001828054610b9d90612b66565b8015610bea5780601f10610bbf57610100808354040283529160200191610bea565b820191906000526020600020905b815481529060010190602001808311610bcd57829003601f168201915b505050505090806002018054610bff90612b66565b80601f0160208091040260200160405190810160405280929190818152602001828054610c2b90612b66565b8015610c785780601f10610c4d57610100808354040283529160200191610c78565b820191906000526020600020905b815481529060010190602001808311610c5b57829003601f168201915b505050505090806003015490806004018054610c9390612b66565b80601f0160208091040260200160405190810160405280929190818152602001828054610cbf90612b66565b8015610d0c5780601f10610ce157610100808354040283529160200191610d0c565b820191906000526020600020905b815481529060010190602001808311610cef57829003601f168201915b505050505090806005018054610d2190612b66565b80601f0160208091040260200160405190810160405280929190818152602001828054610d4d90612b66565b8015610d9a5780601f10610d6f57610100808354040283529160200191610d9a565b820191906000526020600020905b815481529060010190602001808311610d7d57829003601f168201915b5050505050908060060160009054906101000a900460ff16905087565b60048181548110610dc757600080fd5b906000526020600020016000915090508054610de290612b66565b80601f0160208091040260200160405190810160405280929190818152602001828054610e0e90612b66565b8015610e5b5780601f10610e3057610100808354040283529160200191610e5b565b820191906000526020600020905b815481529060010190602001808311610e3e57829003601f168201915b505050505081565b610e6b611d4a565b600260008373ffffffffffffffffffffffffffffffffffffffff1673ffffffffffffffffffffffffffffffffffffffff16815260200190815260200160002060060160009054906101000a900460ff16610efa576040517f08c379a0000000000000000000000000000000000000000000000000000000008152600401610ef1906128d8565b60405180910390fd5b600260008373ffffffffffffffffffffffffffffffffffffffff1673ffffffffffffffffffffffffffffffffffffffff1681526020019081526020016000206040518060e00160405290816000820160009054906101000a900460ff16151515158152602001600182018054610f6f90612b66565b80601f0160208091040260200160405190810160405280929190818152602001828054610f9b90612b66565b8015610fe85780601f10610fbd57610100808354040283529160200191610fe8565b820191906000526020600020905b815481529060010190602001808311610fcb57829003601f168201915b5050505050815260200160028201805461100190612b66565b80601f016020809104026020016040519081016040528092919081815260200182805461102d90612b66565b801561107a5780601f1061104f5761010080835404028352916020019161107a565b820191906000526020600020905b81548152906001019060200180831161105d57829003601f168201915b505050505081526020016003820154815260200160048201805461109d90612b66565b80601f01602080910402602001604051908101604052809291908181526020018280546110c990612b66565b80156111165780601f106110eb57610100808354040283529160200191611116565b820191906000526020600020905b8154815290600101906020018083116110f957829003601f168201915b5050505050815260200160058201805461112f90612b66565b80601f016020809104026020016040519081016040528092919081815260200182805461115b90612b66565b80156111a85780601f1061117d576101008083540402835291602001916111a8565b820191906000526020600020905b81548152906001019060200180831161118b57829003601f168201915b505050505081526020016006820160009054906101000a900460ff1615151515815250509050919050565b60018180516020810182018051848252602083016020850120818352809550505050505060009150905080600001805461120c90612b66565b80601f016020809104026020016040519081016040528092919081815260200182805461123890612b66565b80156112855780601f1061125a57610100808354040283529160200191611285565b820191906000526020600020905b81548152906001019060200180831161126857829003601f168201915b50505050509080600101805461129a90612b66565b80601f01602080910402602001604051908101604052809291908181526020018280546112c690612b66565b80156113135780601f106112e857610100808354040283529160200191611313565b820191906000526020600020905b8154815290600101906020018083116112f657829003601f168201915b5050505050908060020154905083565b600060159054906101000a900460ff1681565b600260003373ffffffffffffffffffffffffffffffffffffffff1673ffffffffffffffffffffffffffffffffffffffff16815260200190815260200160002060060160009054906101000a900460ff16156113c6576040517f08c379a00000000000000000000000000000000000000000000000000000000081526004016113bd90612958565b60405180910390fd5b6003816040516113d69190612669565b908152602001604051809103902060009054906101000a900460ff1615611432576040517f08c379a000000000000000000000000000000000000000000000000000000000815260040161142990612918565b60405180910390fd5b6040518060e0016040528060001515815260200160405180602001604052806000815250815260200185815260200184815260200183815260200182815260200160011515815250600260003373ffffffffffffffffffffffffffffffffffffffff1673ffffffffffffffffffffffffffffffffffffffff16815260200190815260200160002060008201518160000160006101000a81548160ff02191690831515021790555060208201518160010190805190602001906114f5929190611cc4565b506040820151816002019080519060200190611512929190611cc4565b50606082015181600301556080820151816004019080519060200190611539929190611cc4565b5060a0820151816005019080519060200190611556929190611cc4565b5060c08201518160060160006101000a81548160ff021916908315150217905550905050600160038260405161158c9190612669565b908152602001604051809103902060006101000a81548160ff0219169083151502179055503373ffffffffffffffffffffffffffffffffffffffff167f96ac7a421360a2bd773d747b2f64b40a916821c4906dbfdebf787c292e741f7d85836040516115f992919061279c565b60405180910390a250505050565b600060149054906101000a900460ff1681565b60008054906101000a900473ffffffffffffffffffffffffffffffffffffffff1681565b600260003373ffffffffffffffffffffffffffffffffffffffff1673ffffffffffffffffffffffffffffffffffffffff16815260200190815260200160002060060160009054906101000a900460ff166116cd576040517f08c379a00000000000000000000000000000000000000000000000000000000081526004016116c4906128d8565b60405180910390fd5b600060149054906101000a900460ff1661171c576040517f08c379a000000000000000000000000000000000000000000000000000000000815260040161171390612998565b60405180910390fd5b600060159054906101000a900460ff161561176c576040517f08c379a000000000000000000000000000000000000000000000000000000000815260040161176390612818565b60405180910390fd5b600260003373ffffffffffffffffffffffffffffffffffffffff1673ffffffffffffffffffffffffffffffffffffffff16815260200190815260200160002060000160009054906101000a900460ff16156117fc576040517f08c379a00000000000000000000000000000000000000000000000000000000081526004016117f390612898565b60405180910390fd5b600060018260405161180e9190612669565b9081526020016040518091039020600001805461182a90612b66565b9050141561186d576040517f08c379a000000000000000000000000000000000000000000000000000000000815260040161186490612938565b60405180910390fd5b6001600260003373ffffffffffffffffffffffffffffffffffffffff1673ffffffffffffffffffffffffffffffffffffffff16815260200190815260200160002060000160006101000a81548160ff02191690831515021790555080600260003373ffffffffffffffffffffffffffffffffffffffff1673ffffffffffffffffffffffffffffffffffffffff168152602001908152602001600020600101908051906020019061191e929190611cc4565b5060018160405161192f9190612669565b9081526020016040518091039020600201600081548092919061195190612b98565b91905055503373ffffffffffffffffffffffffffffffffffffffff167fcb6783276e8a4347387036bbfea000268f0a4b1f8c46ac79980609f2af8d2acd8260405161199c919061277a565b60405180910390a250565b6060600060048054905067ffffffffffffffff8111156119f0577f4e487b7100000000000000000000000000000000000000000000000000000000600052604160045260246000fd5b604051908082528060200260200182016040528015611a2957816020015b611a16611d8b565b815260200190600190039081611a0e5790505b50905060005b600480549050811015611cbc57600060048281548110611a78577f4e487b7100000000000000000000000000000000000000000000000000000000600052603260045260246000fd5b906000526020600020018054611a8d90612b66565b80601f0160208091040260200160405190810160405280929190818152602001828054611ab990612b66565b8015611b065780601f10611adb57610100808354040283529160200191611b06565b820191906000526020600020905b815481529060010190602001808311611ae957829003601f168201915b50505050509050600181604051611b1d9190612669565b9081526020016040518091039020604051806060016040529081600082018054611b4690612b66565b80601f0160208091040260200160405190810160405280929190818152602001828054611b7290612b66565b8015611bbf5780601f10611b9457610100808354040283529160200191611bbf565b820191906000526020600020905b815481529060010190602001808311611ba257829003601f168201915b50505050508152602001600182018054611bd890612b66565b80601f0160208091040260200160405190810160405280929190818152602001828054611c0490612b66565b8015611c515780601f10611c2657610100808354040283529160200191611c51565b820191906000526020600020905b815481529060010190602001808311611c3457829003601f168201915b50505050508152602001600282015481525050838381518110611c9d577f4e487b7100000000000000000000000000000000000000000000000000000000600052603260045260246000fd5b6020026020010181905250508080611cb490612b98565b915050611a2f565b508091505090565b828054611cd090612b66565b90600052602060002090601f016020900481019282611cf25760008555611d39565b82601f10611d0b57805160ff1916838001178555611d39565b82800160010185558215611d39579182015b82811115611d38578251825591602001919060010190611d1d565b5b509050611d469190611dac565b5090565b6040518060e0016040528060001515815260200160608152602001606081526020016000815260200160608152602001606081526020016000151581525090565b60405180606001604052806060815260200160608152602001600081525090565b5b80821115611dc5576000816000905550600101611dad565b5090565b6000611ddc611dd784612a26565b6129f5565b905082815260208101848484011115611df457600080fd5b611dff848285612b24565b509392505050565b600081359050611e1681612c7f565b92915050565b600082601f830112611e2d57600080fd5b8135611e3d848260208601611dc9565b91505092915050565b600081359050611e5581612c96565b92915050565b600060208284031215611e6d57600080fd5b6000611e7b84828501611e07565b91505092915050565b600060208284031215611e9657600080fd5b600082013567ffffffffffffffff811115611eb057600080fd5b611ebc84828501611e1c565b91505092915050565b60008060408385031215611ed857600080fd5b600083013567ffffffffffffffff811115611ef257600080fd5b611efe85828601611e1c565b925050602083013567ffffffffffffffff811115611f1b57600080fd5b611f2785828601611e1c565b9150509250929050565b60008060008060808587031215611f4757600080fd5b600085013567ffffffffffffffff811115611f6157600080fd5b611f6d87828801611e1c565b9450506020611f7e87828801611e46565b935050604085013567ffffffffffffffff811115611f9b57600080fd5b611fa787828801611e1c565b925050606085013567ffffffffffffffff811115611fc457600080fd5b611fd087828801611e1c565b91505092959194509250565b600060208284031215611fee57600080fd5b6000611ffc84828501611e46565b91505092915050565b60006120118383612543565b905092915050565b61202281612adc565b82525050565b600061203382612a7b565b61203d8185612a9e565b93508360208202850161204f85612a56565b8060005b8581101561208b578484038952815161206c8582612005565b945061207783612a91565b925060208a01995050600181019050612053565b50829750879550505050505092915050565b6120a681612aee565b82525050565b6120b581612aee565b82525050565b60006120c682612a86565b6120d08185612aaf565b93506120e0818560208601612b33565b6120e981612c6e565b840191505092915050565b60006120ff82612a86565b6121098185612ac0565b9350612119818560208601612b33565b61212281612c6e565b840191505092915050565b600061213882612a86565b6121428185612ad1565b9350612152818560208601612b33565b80840191505092915050565b6000815461216b81612b66565b6121758186612ad1565b9450600182166000811461219057600181146121a1576121d4565b60ff198316865281860193506121d4565b6121aa85612a66565b60005b838110156121cc578154818901526001820191506020810190506121ad565b838801955050505b50505092915050565b60006121ea601283612ac0565b91507f456c656374696f6e2068617320656e64656400000000000000000000000000006000830152602082019050919050565b600061222a601983612ac0565b91507f456c656374696f6e206973206e6f7420656e64656420796574000000000000006000830152602082019050919050565b600061226a601783612ac0565b91507f566f74657220494420646f6573206e6f74206d617463680000000000000000006000830152602082019050919050565b60006122aa601983612ac0565b91507f456c656374696f6e20697320616c726561647920656e646564000000000000006000830152602082019050919050565b60006122ea600d83612ac0565b91507f416c726561647920766f746564000000000000000000000000000000000000006000830152602082019050919050565b600061232a601b83612ac0565b91507f456c656374696f6e20697320616c7265616479207374617274656400000000006000830152602082019050919050565b600061236a601483612ac0565b91507f566f746572206e6f7420726567697374657265640000000000000000000000006000830152602082019050919050565b60006123aa601883612ac0565b91507f43616e64696461746520616c72656164792065786973747300000000000000006000830152602082019050919050565b60006123ea601983612ac0565b91507f566f74657220494420697320616c72656164792074616b656e000000000000006000830152602082019050919050565b600061242a601883612ac0565b91507f43616e64696461746520646f6573206e6f7420657869737400000000000000006000830152602082019050919050565b600061246a601b83612ac0565b91507f566f74657220697320616c7265616479207265676973746572656400000000006000830152602082019050919050565b60006124aa602283612ac0565b91507f4f6e6c792061646d696e2063616e20706572666f726d2074686973206163746960008301527f6f6e0000000000000000000000000000000000000000000000000000000000006020830152604082019050919050565b6000612510601b83612ac0565b91507f456c656374696f6e206973206e6f7420737461727465642079657400000000006000830152602082019050919050565b6000606083016000830151848203600086015261256082826120bb565b9150506020830151848203602086015261257a82826120bb565b915050604083015161258f604086018261264b565b508091505092915050565b600060e0830160008301516125b2600086018261209d565b50602083015184820360208601526125ca82826120bb565b915050604083015184820360408601526125e482826120bb565b91505060608301516125f9606086018261264b565b506080830151848203608086015261261182826120bb565b91505060a083015184820360a086015261262b82826120bb565b91505060c083015161264060c086018261209d565b508091505092915050565b61265481612b1a565b82525050565b61266381612b1a565b82525050565b6000612675828461212d565b915081905092915050565b600061268c828461215e565b915081905092915050565b60006020820190506126ac6000830184612019565b92915050565b600060208201905081810360008301526126cc8184612028565b905092915050565b60006020820190506126e960008301846120ac565b92915050565b600060e082019050612704600083018a6120ac565b818103602083015261271681896120f4565b9050818103604083015261272a81886120f4565b9050612739606083018761265a565b818103608083015261274b81866120f4565b905081810360a083015261275f81856120f4565b905061276e60c08301846120ac565b98975050505050505050565b6000602082019050818103600083015261279481846120f4565b905092915050565b600060408201905081810360008301526127b681856120f4565b905081810360208301526127ca81846120f4565b90509392505050565b600060608201905081810360008301526127ed81866120f4565b9050818103602083015261280181856120f4565b9050612810604083018461265a565b949350505050565b60006020820190508181036000830152612831816121dd565b9050919050565b600060208201905081810360008301526128518161221d565b9050919050565b600060208201905081810360008301526128718161225d565b9050919050565b600060208201905081810360008301526128918161229d565b9050919050565b600060208201905081810360008301526128b1816122dd565b9050919050565b600060208201905081810360008301526128d18161231d565b9050919050565b600060208201905081810360008301526128f18161235d565b9050919050565b600060208201905081810360008301526129118161239d565b9050919050565b60006020820190508181036000830152612931816123dd565b9050919050565b600060208201905081810360008301526129518161241d565b9050919050565b600060208201905081810360008301526129718161245d565b9050919050565b600060208201905081810360008301526129918161249d565b9050919050565b600060208201905081810360008301526129b181612503565b9050919050565b600060208201905081810360008301526129d2818461259a565b905092915050565b60006020820190506129ef600083018461265a565b92915050565b6000604051905081810181811067ffffffffffffffff82111715612a1c57612a1b612c3f565b5b8060405250919050565b600067ffffffffffffffff821115612a4157612a40612c3f565b5b601f19601f8301169050602081019050919050565b6000819050602082019050919050565b60008190508160005260206000209050919050565b600081519050919050565b600081519050919050565b6000602082019050919050565b600082825260208201905092915050565b600082825260208201905092915050565b600082825260208201905092915050565b600081905092915050565b6000612ae782612afa565b9050919050565b60008115159050919050565b600073ffffffffffffffffffffffffffffffffffffffff82169050919050565b6000819050919050565b82818337600083830152505050565b60005b83811015612b51578082015181840152602081019050612b36565b83811115612b60576000848401525b50505050565b60006002820490506001821680612b7e57607f821691505b60208210811415612b9257612b91612c10565b5b50919050565b6000612ba382612b1a565b91507fffffffffffffffffffffffffffffffffffffffffffffffffffffffffffffffff821415612bd657612bd5612be1565b5b600182019050919050565b7f4e487b7100000000000000000000000000000000000000000000000000000000600052601160045260246000fd5b7f4e487b7100000000000000000000000000000000000000000000000000000000600052602260045260246000fd5b7f4e487b7100000000000000000000000000000000000000000000000000000000600052604160045260246000fd5b6000601f19601f8301169050919050565b612c8881612adc565b8114612c9357600080fd5b50565b612c9f81612b1a565b8114612caa57600080fd5b5056fea26469706673582212205726e293312a4bc9f648966008e7a1cafe9745f2d5bfd84e76e22320e071ab5964736f6c63430008000033",
  "immutableReferences": {},
  "source": "// SPDX-License-Identifier: MIT\r\npragma solidity ^0.8.0;\r\n\r\ncontract CollegeElection {\r\n    address public admin;\r\n    bool public electionStarted = false;\r\n    bool public electionEnded = false;\r\n\r\n    struct Candidate {\r\n        string id;\r\n        string name;\r\n        uint voteCount;\r\n    }\r\n\r\n    struct Voter {\r\n        bool hasVoted;\r\n        string votedCandidateId;\r\n        string name;\r\n        uint age;\r\n        string gender;\r\n        string voterId;\r\n        bool isRegistered;\r\n    }\r\n\r\n    mapping(string => Candidate) public candidates; // Candidate ID to Candidate\r\n    mapping(address => Voter) public voters; // Ethereum address to Voter\r\n    mapping(string => bool) public voterIds; // Ensures voter ID uniqueness\r\n    string[] public candidateList; // List of candidate IDs for enumeration\r\n\r\n    event ElectionStarted();\r\n    event ElectionEnded();\r\n    event Voted(address indexed voter, string candidateId);\r\n    event VoterRegistered(address indexed voter, string name, string voterId);\r\n    event VoterLogin(address indexed voter, string name);\r\n\r\n    modifier onlyAdmin() {\r\n        require(msg.sender == admin, \"Only admin can perform this action\");\r\n        _;\r\n    }\r\n\r\n    constructor() {\r\n        admin = msg.sender;\r\n    }\r\n\r\n    // Register Candidate (Admin Only)\r\n    function addCandidate(string memory _id, string memory _name) public onlyAdmin {\r\n        require(bytes(candidates[_id].id).length == 0, \"Candidate already exists\");\r\n        candidates[_id] = Candidate(_id, _name, 0);\r\n        candidateList.push(_id);\r\n    }\r\n\r\n    // Start Election (Admin Only)\r\n    function startElection() public onlyAdmin {\r\n        require(!electionStarted, \"Election is already started\");\r\n        require(!electionEnded, \"Election has ended\");\r\n        electionStarted = true;\r\n        emit ElectionStarted();\r\n    }\r\n\r\n    // End Election (Admin Only)\r\n    function endElection() public onlyAdmin {\r\n        require(electionStarted, \"Election is not started yet\");\r\n        require(!electionEnded, \"Election is already ended\");\r\n        electionEnded = true;\r\n        emit ElectionEnded();\r\n    }\r\n\r\n    // Register Voter\r\n    function registerVoter(string memory _name, uint _age, string memory _gender, string memory _voterId) public {\r\n        require(!voters[msg.sender].isRegistered, \"Voter is already registered\");\r\n        require(!voterIds[_voterId], \"Voter ID is already taken\");\r\n\r\n        voters[msg.sender] = Voter({\r\n            hasVoted: false,\r\n            votedCandidateId: \"\",\r\n            name: _name,\r\n            age: _age,\r\n            gender: _gender,\r\n            voterId: _voterId,\r\n            isRegistered: true\r\n        });\r\n\r\n        voterIds[_voterId] = true; // Mark voter ID as used\r\n\r\n        emit VoterRegistered(msg.sender, _name, _voterId);\r\n    }\r\n\r\n    // Login Voter\r\n    function loginVoter(string memory _voterId) public view returns (string memory) {\r\n        require(voters[msg.sender].isRegistered, \"Voter not registered\");\r\n        require(keccak256(abi.encodePacked(voters[msg.sender].voterId)) == keccak256(abi.encodePacked(_voterId)), \"Voter ID does not match\");\r\n        return voters[msg.sender].name;\r\n    }\r\n\r\n    // Vote for a Candidate\r\n    function vote(string memory _candidateId) public {\r\n        require(voters[msg.sender].isRegistered, \"Voter not registered\");\r\n        require(electionStarted, \"Election is not started yet\");\r\n        require(!electionEnded, \"Election has ended\");\r\n        require(!voters[msg.sender].hasVoted, \"Already voted\");\r\n\r\n        require(bytes(candidates[_candidateId].id).length != 0, \"Candidate does not exist\");\r\n\r\n        voters[msg.sender].hasVoted = true;\r\n        voters[msg.sender].votedCandidateId = _candidateId;\r\n        candidates[_candidateId].voteCount++;\r\n\r\n        emit Voted(msg.sender, _candidateId);\r\n    }\r\n\r\n    // Get Election Results for a Candidate\r\n    function getResults(string memory _candidateId) public view returns (uint) {\r\n        require(electionEnded, \"Election is not ended yet\");\r\n        require(bytes(candidates[_candidateId].id).length != 0, \"Candidate does not exist\");\r\n\r\n        return candidates[_candidateId].voteCount;\r\n    }\r\n\r\n    // Get List of Candidates\r\n    function getCandidateList() public view returns (Candidate[] memory) {\r\n        Candidate[] memory result = new Candidate[](candidateList.length);\r\n        for (uint i = 0; i < candidateList.length; i++) {\r\n            string memory id = candidateList[i];\r\n            result[i] = candidates[id];\r\n        }\r\n        return result;\r\n    }\r\n\r\n    // Get Voter Details\r\n    function getVoterDetails(address _voter) public view returns (Voter memory) {\r\n        require(voters[_voter].isRegistered, \"Voter not registered\");\r\n        return voters[_voter];\r\n    }\r\n}\r\n",
  "sourcePath": "C:\\Users\\hp\\Desktop\\Saswith\\Block Chain Based Voting System\\blockchain\\contracts\\Election.sol",
  "compiler": {
    "name": "solc",
    "version": "0.8.0+commit.c7dfd78e.Emscripten.clang"
  },
  "schemaVersion": "3.4.16",
  "updatedAt": "2025-03-19T11:57:28.699Z",
  "networkType": "ethereum",
  "devdoc": {
    "kind": "dev",
    "methods": {},
    "version": 1
  },
  "userdoc": {
    "kind": "user",
    "methods": {},
    "version": 1
  }
}